{
  "contractName": "Algorithm",
  "abi": [
    {
      "inputs": [],
      "stateMutability": "nonpayable",
      "type": "constructor"
    },
    {
      "inputs": [
        {
          "internalType": "uint256",
          "name": "",
          "type": "uint256"
        }
      ],
      "name": "reports",
      "outputs": [
        {
          "internalType": "string",
          "name": "userAddress",
          "type": "string"
        },
        {
          "internalType": "string",
          "name": "reportHash",
          "type": "string"
        },
        {
          "internalType": "uint16",
          "name": "downloads",
          "type": "uint16"
        }
      ],
      "stateMutability": "view",
      "type": "function",
      "constant": true
    },
    {
      "inputs": [],
      "name": "HPF",
      "outputs": [
        {
          "internalType": "uint16",
          "name": "",
          "type": "uint16"
        }
      ],
      "stateMutability": "view",
      "type": "function",
      "constant": true
    },
    {
      "inputs": [
        {
          "internalType": "string",
          "name": "_user",
          "type": "string"
        },
        {
          "internalType": "string",
          "name": "_reporthash",
          "type": "string"
        },
        {
          "internalType": "uint16",
          "name": "_downloads",
          "type": "uint16"
        }
      ],
      "name": "reportsPush",
      "outputs": [],
      "stateMutability": "nonpayable",
      "type": "function"
    }
  ],
  "bytecode": "0x608060405234801561001057600080fd5b50600060405180606001604052806040518060600160405280602a8152602001610b91602a913981526020016040518060400160405280600281526020017f5231000000000000000000000000000000000000000000000000000000000000815250815260200161038461ffff16815250908060018154018082558091505060019003906000526020600020906003020160009091909190915060008201518160000190805190602001906100c69291906103f6565b5060208201518160010190805190602001906100e39291906103f6565b5060408201518160020160006101000a81548161ffff021916908361ffff1602179055505050600060405180606001604052806040518060600160405280602a8152602001610b67602a913981526020016040518060400160405280600281526020017f5232000000000000000000000000000000000000000000000000000000000000815250815260200161032061ffff16815250908060018154018082558091505060019003906000526020600020906003020160009091909190915060008201518160000190805190602001906101be9291906103f6565b5060208201518160010190805190602001906101db9291906103f6565b5060408201518160020160006101000a81548161ffff021916908361ffff1602179055505050600060405180606001604052806040518060600160405280602a8152602001610bbb602a913981526020016040518060400160405280600281526020017f523300000000000000000000000000000000000000000000000000000000000081525081526020016102bc61ffff16815250908060018154018082558091505060019003906000526020600020906003020160009091909190915060008201518160000190805190602001906102b69291906103f6565b5060208201518160010190805190602001906102d39291906103f6565b5060408201518160020160006101000a81548161ffff021916908361ffff1602179055505050600060405180606001604052806040518060600160405280602a8152602001610be5602a913981526020016040518060400160405280600281526020017f5234000000000000000000000000000000000000000000000000000000000000815250815260200161025861ffff16815250908060018154018082558091505060019003906000526020600020906003020160009091909190915060008201518160000190805190602001906103ae9291906103f6565b5060208201518160010190805190602001906103cb9291906103f6565b5060408201518160020160006101000a81548161ffff021916908361ffff1602179055505050610493565b828054600181600116156101000203166002900490600052602060002090601f016020900481019282601f1061043757805160ff1916838001178555610465565b82800160010185558215610465579182015b82811115610464578251825591602001919060010190610449565b5b5090506104729190610476565b5090565b5b8082111561048f576000816000905550600101610477565b5090565b6106c5806104a26000396000f3fe608060405234801561001057600080fd5b50600436106100415760003560e01c8063915aacdb14610046578063b95ef42614610068578063c942adf7146101c8575b600080fd5b61004e6102e6565b604051808261ffff16815260200191505060405180910390f35b6101c66004803603606081101561007e57600080fd5b810190808035906020019064010000000081111561009b57600080fd5b8201836020820111156100ad57600080fd5b803590602001918460018302840111640100000000831117156100cf57600080fd5b91908080601f016020809104026020016040519081016040528093929190818152602001838380828437600081840152601f19601f8201169050808301925050505050505091929192908035906020019064010000000081111561013257600080fd5b82018360208201111561014457600080fd5b8035906020019184600183028401116401000000008311171561016657600080fd5b91908080601f016020809104026020016040519081016040528093929190818152602001838380828437600081840152601f19601f820116905080830192505050505050509192919290803561ffff1690602001909291905050506103cf565b005b6101f4600480360360208110156101de57600080fd5b810190808035906020019092919050505061047d565b6040518080602001806020018461ffff168152602001838103835286818151815260200191508051906020019080838360005b83811015610242578082015181840152602081019050610227565b50505050905090810190601f16801561026f5780820380516001836020036101000a031916815260200191505b50838103825285818151815260200191508051906020019080838360005b838110156102a857808201518184015260208101905061028d565b50505050905090810190601f1680156102d55780820380516001836020036101000a031916815260200191505b509550505050505060405180910390f35b600080600090506000600490506000600282816102ff57fe5b06141561038d57600260006002838161031457fe5b048154811061031f57fe5b906000526020600020906003020160020160009054906101000a900461ffff16600060016002858161034d57fe5b04038154811061035957fe5b906000526020600020906003020160020160009054906101000a900461ffff160161ffff168161038557fe5b0491506103c7565b60006002828161039957fe5b04815481106103a457fe5b906000526020600020906003020160020160009054906101000a900461ffff1691505b819250505090565b600060405180606001604052808581526020018481526020018361ffff16815250908060018154018082558091505060019003906000526020600020906003020160009091909190915060008201518160000190805190602001906104359291906105f2565b5060208201518160010190805190602001906104529291906105f2565b5060408201518160020160006101000a81548161ffff021916908361ffff1602179055505050505050565b6000818154811061048a57fe5b9060005260206000209060030201600091509050806000018054600181600116156101000203166002900480601f0160208091040260200160405190810160405280929190818152602001828054600181600116156101000203166002900480156105365780601f1061050b57610100808354040283529160200191610536565b820191906000526020600020905b81548152906001019060200180831161051957829003601f168201915b505050505090806001018054600181600116156101000203166002900480601f0160208091040260200160405190810160405280929190818152602001828054600181600116156101000203166002900480156105d45780601f106105a9576101008083540402835291602001916105d4565b820191906000526020600020905b8154815290600101906020018083116105b757829003601f168201915b5050505050908060020160009054906101000a900461ffff16905083565b828054600181600116156101000203166002900490600052602060002090601f016020900481019282601f1061063357805160ff1916838001178555610661565b82800160010185558215610661579182015b82811115610660578251825591602001919060010190610645565b5b50905061066e9190610672565b5090565b5b8082111561068b576000816000905550600101610673565b509056fea26469706673582212209a1f246fe92bcb2cc809dd1e84cea76e9a821ab77dfd1a5560a56007c5f7d3bf64736f6c634300060c0033307834356337396262453936346436386265433363384265434142396433413762376637653964446364307863393437323835304332626245424336383962353831623932413245314136393432333563396535307841343638326535313935313966334434363144454561363065643866324130376437656437343538307831464336463230663232393636323861373636333930323134344663324434353037634362354244",
  "immutableReferences": {},
  "source": "pragma solidity ^0.6.0;\n\n\ncontract Algorithm {\n    // Web3にレポートのダウンロード数、アカウントの情報をEthereumから取ってくるように命令\n    // 一旦、簡易的なデータを作ってアルゴリズムを実装する\n    struct Report {\n        string userAddress;\n        string reportHash;\n        uint16 downloads;\n    }\n    Report[] public reports;\n    \n    constructor() public{\n        reports.push(Report(\"0xc9472850C2bbEBC689b581b92A2E1A694235c9e5\", \"R1\", 900));\n        reports.push(Report(\"0x45c79bbE964d68beC3c8BeCAB9d3A7b7f7e9dDcd\", \"R2\", 800));\n        reports.push(Report(\"0xA4682e519519f3D461DEEa60ed8f2A07d7ed7458\", \"R3\", 700));\n        reports.push(Report(\"0x1FC6F20f2296628a7663902144Fc2D4507cCb5BD\", \"R4\", 600));\n        // reports.push(Report(\"0x703f3570f9E4cE14a9bcD4082E6f099c74033421\", \"R5\", 500));\n        // reports.push(Report(\"0x82400A6a62150Dc6a29B966b5322b35069a9484d\", \"R6\", 400));\n        // reports.push(Report(\"0x41f3307e3693FcC9AAECa1d877B992b27B14950f\", \"R7\", 300));\n        // reports.push(Report(\"0x82C9EE99802C077F2BB13E0Fb391753dF875aC31\", \"R8\", 200));\n        // reports.push(Report(\"0xDC65E1106A1123fc00851D2e9CD8a5eDcd911afE\", \"R9\", 100));\n        // reports.push(Report(\"0x1B01Da83f3053D7BE8D06Aaf9a0A0f62EaBB6c53\", \"R21\", 50));\n    }\n\n\n\n    // HPF():High Pass Filter\n    function HPF() public view returns (uint16) {\n        uint16 _median = 0;\n        uint256 n = 4;\n\n        if (n % 2 == 0) {\n            _median = (reports[n/2 - 1].downloads + reports[n/2].downloads) / 2;\n        }\n\n        else {\n            _median = reports[n/2].downloads;\n        }\n        return _median;\n    }\n\n    function reportsPush(string memory _user, string memory _reporthash, uint16 _downloads) public {\n        reports.push(Report(_user, _reporthash, _downloads));\n    }\n}\n\n",
  "sourcePath": "/Users/ishimototakara/challecara/ReportToken/contracts/Algorithm.sol",
  "compiler": {
    "name": "solc",
    "version": "0.6.12+commit.27d51765.Emscripten.clang"
  },
  "schemaVersion": "3.2.5",
  "updatedAt": "2020-10-04T06:54:23.579Z",
  "networkType": "ethereum",
  "devdoc": {
    "kind": "dev",
    "methods": {},
    "version": 1
  },
  "userdoc": {
    "kind": "user",
    "methods": {},
    "version": 1
  }
}