{
  "contractName": "Algorithm",
  "abi": [
    {
      "inputs": [],
      "stateMutability": "nonpayable",
      "type": "constructor"
    },
    {
      "inputs": [
        {
          "internalType": "uint256",
          "name": "",
          "type": "uint256"
        }
      ],
      "name": "reports",
      "outputs": [
        {
          "internalType": "string",
          "name": "userAddress",
          "type": "string"
        },
        {
          "internalType": "string",
          "name": "reportHash",
          "type": "string"
        },
        {
          "internalType": "uint256",
          "name": "downloads",
          "type": "uint256"
        }
      ],
      "stateMutability": "view",
      "type": "function",
      "constant": true
    },
    {
      "inputs": [
        {
          "internalType": "uint256",
          "name": "",
          "type": "uint256"
        }
      ],
      "name": "reportsAbove",
      "outputs": [
        {
          "internalType": "string",
          "name": "userAddress",
          "type": "string"
        },
        {
          "internalType": "string",
          "name": "reportHash",
          "type": "string"
        },
        {
          "internalType": "uint256",
          "name": "downloads",
          "type": "uint256"
        }
      ],
      "stateMutability": "view",
      "type": "function",
      "constant": true
    },
    {
      "inputs": [
        {
          "internalType": "uint256",
          "name": "",
          "type": "uint256"
        }
      ],
      "name": "reportsBelow",
      "outputs": [
        {
          "internalType": "string",
          "name": "userAddress",
          "type": "string"
        },
        {
          "internalType": "string",
          "name": "reportHash",
          "type": "string"
        },
        {
          "internalType": "uint256",
          "name": "downloads",
          "type": "uint256"
        }
      ],
      "stateMutability": "view",
      "type": "function",
      "constant": true
    },
    {
      "inputs": [],
      "name": "HPF",
      "outputs": [
        {
          "internalType": "uint256",
          "name": "",
          "type": "uint256"
        }
      ],
      "stateMutability": "nonpayable",
      "type": "function"
    },
    {
      "inputs": [
        {
          "internalType": "string",
          "name": "_user",
          "type": "string"
        },
        {
          "internalType": "string",
          "name": "_reporthash",
          "type": "string"
        },
        {
          "internalType": "uint16",
          "name": "_downloads",
          "type": "uint16"
        }
      ],
      "name": "reportsPush",
      "outputs": [],
      "stateMutability": "nonpayable",
      "type": "function"
    }
  ],
  "bytecode": "0x60806040523480156200001157600080fd5b50600060405180606001604052806040518060600160405280602a815260200162001a2d602a913981526020016040518060400160405280600281526020017f5231000000000000000000000000000000000000000000000000000000000000815250815260200161038481525090806001815401808255809150506001900390600052602060002090600302016000909190919091506000820151816000019080519060200190620000c6929190620008d5565b506020820151816001019080519060200190620000e5929190620008d5565b50604082015181600201555050600060405180606001604052806040518060600160405280602a8152602001620019d9602a913981526020016040518060400160405280600281526020017f5232000000000000000000000000000000000000000000000000000000000000815250815260200161032081525090806001815401808255809150506001900390600052602060002090600302016000909190919091506000820151816000019080519060200190620001a6929190620008d5565b506020820151816001019080519060200190620001c5929190620008d5565b50604082015181600201555050600060405180606001604052806040518060600160405280602a815260200162001a57602a913981526020016040518060400160405280600281526020017f523300000000000000000000000000000000000000000000000000000000000081525081526020016102bc8152509080600181540180825580915050600190039060005260206000209060030201600090919091909150600082015181600001908051906020019062000286929190620008d5565b506020820151816001019080519060200190620002a5929190620008d5565b50604082015181600201555050600060405180606001604052806040518060600160405280602a815260200162001aff602a913981526020016040518060400160405280600281526020017f523400000000000000000000000000000000000000000000000000000000000081525081526020016102588152509080600181540180825580915050600190039060005260206000209060030201600090919091909150600082015181600001908051906020019062000366929190620008d5565b50602082015181600101908051906020019062000385929190620008d5565b50604082015181600201555050600060405180606001604052806040518060600160405280602a815260200162001a81602a913981526020016040518060400160405280600281526020017f523500000000000000000000000000000000000000000000000000000000000081525081526020016101f48152509080600181540180825580915050600190039060005260206000209060030201600090919091909150600082015181600001908051906020019062000446929190620008d5565b50602082015181600101908051906020019062000465929190620008d5565b50604082015181600201555050600060405180606001604052806040518060600160405280602a815260200162001985602a913981526020016040518060400160405280600281526020017f523600000000000000000000000000000000000000000000000000000000000081525081526020016101908152509080600181540180825580915050600190039060005260206000209060030201600090919091909150600082015181600001908051906020019062000526929190620008d5565b50602082015181600101908051906020019062000545929190620008d5565b50604082015181600201555050600060405180606001604052806040518060600160405280602a815260200162001a03602a913981526020016040518060400160405280600281526020017f5237000000000000000000000000000000000000000000000000000000000000815250815260200161012c8152509080600181540180825580915050600190039060005260206000209060030201600090919091909150600082015181600001908051906020019062000606929190620008d5565b50602082015181600101908051906020019062000625929190620008d5565b50604082015181600201555050600060405180606001604052806040518060600160405280602a815260200162001ad5602a913981526020016040518060400160405280600281526020017f5238000000000000000000000000000000000000000000000000000000000000815250815260200160c881525090806001815401808255809150506001900390600052602060002090600302016000909190919091506000820151816000019080519060200190620006e5929190620008d5565b50602082015181600101908051906020019062000704929190620008d5565b50604082015181600201555050600060405180606001604052806040518060600160405280602a8152602001620019af602a913981526020016040518060400160405280600281526020017f52390000000000000000000000000000000000000000000000000000000000008152508152602001606481525090806001815401808255809150506001900390600052602060002090600302016000909190919091506000820151816000019080519060200190620007c4929190620008d5565b506020820151816001019080519060200190620007e3929190620008d5565b50604082015181600201555050600060405180606001604052806040518060600160405280602a815260200162001aab602a913981526020016040518060400160405280600381526020017f52323100000000000000000000000000000000000000000000000000000000008152508152602001603281525090806001815401808255809150506001900390600052602060002090600302016000909190919091506000820151816000019080519060200190620008a3929190620008d5565b506020820151816001019080519060200190620008c2929190620008d5565b506040820151816002015550506200097b565b828054600181600116156101000203166002900490600052602060002090601f016020900481019282601f106200091857805160ff191683800117855562000949565b8280016001018555821562000949579182015b82811115620009485782518255916020019190600101906200092b565b5b5090506200095891906200095c565b5090565b5b80821115620009775760008160009055506001016200095d565b5090565b610ffa806200098b6000396000f3fe608060405234801561001057600080fd5b50600436106100575760003560e01c806312556c8b1461005c578063915aacdb14610176578063b95ef42614610194578063c942adf7146102f4578063dedfc4131461040e575b600080fd5b6100886004803603602081101561007257600080fd5b8101908080359060200190929190505050610528565b604051808060200180602001848152602001838103835286818151815260200191508051906020019080838360005b838110156100d25780820151818401526020810190506100b7565b50505050905090810190601f1680156100ff5780820380516001836020036101000a031916815260200191505b50838103825285818151815260200191508051906020019080838360005b8381101561013857808201518184015260208101905061011d565b50505050905090810190601f1680156101655780820380516001836020036101000a031916815260200191505b509550505050505060405180910390f35b61017e61068f565b6040518082815260200191505060405180910390f35b6102f2600480360360608110156101aa57600080fd5b81019080803590602001906401000000008111156101c757600080fd5b8201836020820111156101d957600080fd5b803590602001918460018302840111640100000000831117156101fb57600080fd5b91908080601f016020809104026020016040519081016040528093929190818152602001838380828437600081840152601f19601f8201169050808301925050505050505091929192908035906020019064010000000081111561025e57600080fd5b82018360208201111561027057600080fd5b8035906020019184600183028401116401000000008311171561029257600080fd5b91908080601f016020809104026020016040519081016040528093929190818152602001838380828437600081840152601f19601f820116905080830192505050505050509192919290803561ffff169060200190929190505050610bc4565b005b6103206004803603602081101561030a57600080fd5b8101908080359060200190929190505050610c59565b604051808060200180602001848152602001838103835286818151815260200191508051906020019080838360005b8381101561036a57808201518184015260208101905061034f565b50505050905090810190601f1680156103975780820380516001836020036101000a031916815260200191505b50838103825285818151815260200191508051906020019080838360005b838110156103d05780820151818401526020810190506103b5565b50505050905090810190601f1680156103fd5780820380516001836020036101000a031916815260200191505b509550505050505060405180910390f35b61043a6004803603602081101561042457600080fd5b8101908080359060200190929190505050610dc0565b604051808060200180602001848152602001838103835286818151815260200191508051906020019080838360005b83811015610484578082015181840152602081019050610469565b50505050905090810190601f1680156104b15780820380516001836020036101000a031916815260200191505b50838103825285818151815260200191508051906020019080838360005b838110156104ea5780820151818401526020810190506104cf565b50505050905090810190601f1680156105175780820380516001836020036101000a031916815260200191505b509550505050505060405180910390f35b6002818154811061053557fe5b9060005260206000209060030201600091509050806000018054600181600116156101000203166002900480601f0160208091040260200160405190810160405280929190818152602001828054600181600116156101000203166002900480156105e15780601f106105b6576101008083540402835291602001916105e1565b820191906000526020600020905b8154815290600101906020018083116105c457829003601f168201915b505050505090806001018054600181600116156101000203166002900480601f01602080910402602001604051908101604052809291908181526020018280546001816001161561010002031660029004801561067f5780601f106106545761010080835404028352916020019161067f565b820191906000526020600020905b81548152906001019060200180831161066257829003601f168201915b5050505050908060020154905083565b600080600090506000600a9050600080600283816106a957fe5b0614156107175760026000600284816106be57fe5b04815481106106c957fe5b90600052602060002090600302016002015460006001600286816106e957fe5b0403815481106106f557fe5b906000526020600020906003020160020154018161070f57fe5b049250610743565b60006002838161072357fe5b048154811061072e57fe5b90600052602060002090600302016002015492505b60005b82811015610bba57836000828154811061075c57fe5b90600052602060002090600302016002015410610996578180600101925050600160405180606001604052806000848154811061079557fe5b90600052602060002090600302016000018054600181600116156101000203166002900480601f01602080910402602001604051908101604052809291908181526020018280546001816001161561010002031660029004801561083a5780601f1061080f5761010080835404028352916020019161083a565b820191906000526020600020905b81548152906001019060200180831161081d57829003601f168201915b505050505081526020016000848154811061085157fe5b90600052602060002090600302016001018054600181600116156101000203166002900480601f0160208091040260200160405190810160405280929190818152602001828054600181600116156101000203166002900480156108f65780601f106108cb576101008083540402835291602001916108f6565b820191906000526020600020905b8154815290600101906020018083116108d957829003601f168201915b505050505081526020016000848154811061090d57fe5b90600052602060002090600302016002015481525090806001815401808255809150506001900390600052602060002090600302016000909190919091506000820151816000019080519060200190610967929190610f27565b506020820151816001019080519060200190610984929190610f27565b50604082015181600201555050610bad565b60026040518060600160405280600084815481106109b057fe5b90600052602060002090600302016000018054600181600116156101000203166002900480601f016020809104026020016040519081016040528092919081815260200182805460018160011615610100020316600290048015610a555780601f10610a2a57610100808354040283529160200191610a55565b820191906000526020600020905b815481529060010190602001808311610a3857829003601f168201915b5050505050815260200160008481548110610a6c57fe5b90600052602060002090600302016001018054600181600116156101000203166002900480601f016020809104026020016040519081016040528092919081815260200182805460018160011615610100020316600290048015610b115780601f10610ae657610100808354040283529160200191610b11565b820191906000526020600020905b815481529060010190602001808311610af457829003601f168201915b5050505050815260200160008481548110610b2857fe5b90600052602060002090600302016002015481525090806001815401808255809150506001900390600052602060002090600302016000909190919091506000820151816000019080519060200190610b82929190610f27565b506020820151816001019080519060200190610b9f929190610f27565b506040820151816002015550505b8080600101915050610746565b5080935050505090565b600060405180606001604052808581526020018481526020018361ffff1681525090806001815401808255809150506001900390600052602060002090600302016000909190919091506000820151816000019080519060200190610c2a929190610f27565b506020820151816001019080519060200190610c47929190610f27565b50604082015181600201555050505050565b60008181548110610c6657fe5b9060005260206000209060030201600091509050806000018054600181600116156101000203166002900480601f016020809104026020016040519081016040528092919081815260200182805460018160011615610100020316600290048015610d125780601f10610ce757610100808354040283529160200191610d12565b820191906000526020600020905b815481529060010190602001808311610cf557829003601f168201915b505050505090806001018054600181600116156101000203166002900480601f016020809104026020016040519081016040528092919081815260200182805460018160011615610100020316600290048015610db05780601f10610d8557610100808354040283529160200191610db0565b820191906000526020600020905b815481529060010190602001808311610d9357829003601f168201915b5050505050908060020154905083565b60018181548110610dcd57fe5b9060005260206000209060030201600091509050806000018054600181600116156101000203166002900480601f016020809104026020016040519081016040528092919081815260200182805460018160011615610100020316600290048015610e795780601f10610e4e57610100808354040283529160200191610e79565b820191906000526020600020905b815481529060010190602001808311610e5c57829003601f168201915b505050505090806001018054600181600116156101000203166002900480601f016020809104026020016040519081016040528092919081815260200182805460018160011615610100020316600290048015610f175780601f10610eec57610100808354040283529160200191610f17565b820191906000526020600020905b815481529060010190602001808311610efa57829003601f168201915b5050505050908060020154905083565b828054600181600116156101000203166002900490600052602060002090601f016020900481019282601f10610f6857805160ff1916838001178555610f96565b82800160010185558215610f96579182015b82811115610f95578251825591602001919060010190610f7a565b5b509050610fa39190610fa7565b5090565b5b80821115610fc0576000816000905550600101610fa8565b509056fea26469706673582212203f58e665ea8b91a591cb45db4a821199bc9dd0a5a31fcc11a6b39fc7583e2b1d64736f6c634300060c0033307838323430304136613632313530446336613239423936366235333232623335303639613934383464307844433635453131303641313132336663303038353144326539434438613565446364393131616645307834356337396262453936346436386265433363384265434142396433413762376637653964446364307834316633333037653336393346634339414145436131643837374239393262323742313439353066307863393437323835304332626245424336383962353831623932413245314136393432333563396535307841343638326535313935313966334434363144454561363065643866324130376437656437343538307837303366333537306639453463453134613962634434303832453666303939633734303333343231307831423031446138336633303533443742453844303641616639613041306636324561424236633533307838324339454539393830324330373746324242313345304662333931373533644638373561433331307831464336463230663232393636323861373636333930323134344663324434353037634362354244",
  "immutableReferences": {},
  "source": "// SPDX-License-Identifier: MIT\npragma solidity ^0.6.0;\n\n\ncontract Algorithm {\n    // Web3にレポートのダウンロード数、アカウントの情報をEthereumから取ってくるように命令\n    // 一旦、簡易的なデータを作ってアルゴリズムを実装する\n    struct Report {\n        string userAddress;\n        string reportHash;\n        uint256 downloads;\n    }\n    Report[] public reports;\n    Report[] public reportsAbove;\n    Report[] public reportsBelow;\n    \n    constructor() public{\n        reports.push(Report(\"0xc9472850C2bbEBC689b581b92A2E1A694235c9e5\", \"R1\", 900));\n        reports.push(Report(\"0x45c79bbE964d68beC3c8BeCAB9d3A7b7f7e9dDcd\", \"R2\", 800));\n        reports.push(Report(\"0xA4682e519519f3D461DEEa60ed8f2A07d7ed7458\", \"R3\", 700));\n        reports.push(Report(\"0x1FC6F20f2296628a7663902144Fc2D4507cCb5BD\", \"R4\", 600));\n        reports.push(Report(\"0x703f3570f9E4cE14a9bcD4082E6f099c74033421\", \"R5\", 500));\n        reports.push(Report(\"0x82400A6a62150Dc6a29B966b5322b35069a9484d\", \"R6\", 400));\n        reports.push(Report(\"0x41f3307e3693FcC9AAECa1d877B992b27B14950f\", \"R7\", 300));\n        reports.push(Report(\"0x82C9EE99802C077F2BB13E0Fb391753dF875aC31\", \"R8\", 200));\n        reports.push(Report(\"0xDC65E1106A1123fc00851D2e9CD8a5eDcd911afE\", \"R9\", 100));\n        reports.push(Report(\"0x1B01Da83f3053D7BE8D06Aaf9a0A0f62EaBB6c53\", \"R21\", 50));\n    }\n\n\n\n    // HPF():High Pass Filter\n    function HPF() public returns (uint256) {\n        uint256 _median = 0;\n        uint256 _n = 10;\n        uint256 _a = 0; \n\n        if (_n % 2 == 0) {\n            _median = (reports[_n/2 - 1].downloads + reports[_n/2].downloads) / 2;\n        }\n\n        else {\n            _median = reports[_n/2].downloads;\n        }\n        \n        for(uint i = 0; i < _n; i++) {\n            if(reports[i].downloads >= _median) {\n                _a++;\n                reportsAbove.push(Report(reports[i].userAddress, reports[i].reportHash, reports[i].downloads));\n            }\n            else {\n                reportsBelow.push(Report(reports[i].userAddress, reports[i].reportHash, reports[i].downloads));\n            }\n        }\n        return _a;\n    }\n\n    function reportsPush(string memory _user, string memory _reporthash, uint16 _downloads) public {\n        reports.push(Report(_user, _reporthash, _downloads));\n    }\n}\n\n",
  "sourcePath": "/Users/ishimototakara/challecara/ReportToken/contracts/Algorithm.sol",
  "compiler": {
    "name": "solc",
    "version": "0.6.12+commit.27d51765.Emscripten.clang"
  },
  "schemaVersion": "3.2.5",
  "updatedAt": "2020-10-05T13:16:54.303Z",
  "networkType": "ethereum",
  "devdoc": {
    "kind": "dev",
    "methods": {},
    "version": 1
  },
  "userdoc": {
    "kind": "user",
    "methods": {},
    "version": 1
  }
}