{
  "contractName": "ReportInfo",
  "abi": [
    {
      "inputs": [
        {
          "internalType": "uint256",
          "name": "",
          "type": "uint256"
        }
      ],
      "name": "Reports",
      "outputs": [
        {
          "internalType": "string",
          "name": "userAddress",
          "type": "string"
        },
        {
          "internalType": "string",
          "name": "reportHash",
          "type": "string"
        },
        {
          "internalType": "uint16",
          "name": "downloads",
          "type": "uint16"
        }
      ],
      "stateMutability": "view",
      "type": "function",
      "constant": true
    },
    {
      "inputs": [
        {
          "internalType": "string",
          "name": "_userAddress",
          "type": "string"
        },
        {
          "internalType": "string",
          "name": "_reportHash",
          "type": "string"
        },
        {
          "internalType": "uint16",
          "name": "_downloads",
          "type": "uint16"
        }
      ],
      "name": "set",
      "outputs": [],
      "stateMutability": "nonpayable",
      "type": "function"
    },
    {
      "inputs": [
        {
          "internalType": "uint256",
          "name": "_index",
          "type": "uint256"
        }
      ],
      "name": "get",
      "outputs": [
        {
          "internalType": "string",
          "name": "",
          "type": "string"
        },
        {
          "internalType": "string",
          "name": "",
          "type": "string"
        },
        {
          "internalType": "uint16",
          "name": "",
          "type": "uint16"
        }
      ],
      "stateMutability": "view",
      "type": "function",
      "constant": true
    }
  ],
  "bytecode": "0x608060405234801561001057600080fd5b5061088b806100206000396000f3fe608060405234801561001057600080fd5b50600436106100415760003560e01c8063467f2cd8146100465780639507d39a146101645780639583134714610282575b600080fd5b6100726004803603602081101561005c57600080fd5b81019080803590602001909291905050506103e2565b6040518080602001806020018461ffff168152602001838103835286818151815260200191508051906020019080838360005b838110156100c05780820151818401526020810190506100a5565b50505050905090810190601f1680156100ed5780820380516001836020036101000a031916815260200191505b50838103825285818151815260200191508051906020019080838360005b8381101561012657808201518184015260208101905061010b565b50505050905090810190601f1680156101535780820380516001836020036101000a031916815260200191505b509550505050505060405180910390f35b6101906004803603602081101561017a57600080fd5b8101908080359060200190929190505050610557565b6040518080602001806020018461ffff168152602001838103835286818151815260200191508051906020019080838360005b838110156101de5780820151818401526020810190506101c3565b50505050905090810190601f16801561020b5780820380516001836020036101000a031916815260200191505b50838103825285818151815260200191508051906020019080838360005b83811015610244578082015181840152602081019050610229565b50505050905090810190601f1680156102715780820380516001836020036101000a031916815260200191505b509550505050505060405180910390f35b6103e06004803603606081101561029857600080fd5b81019080803590602001906401000000008111156102b557600080fd5b8201836020820111156102c757600080fd5b803590602001918460018302840111640100000000831117156102e957600080fd5b91908080601f016020809104026020016040519081016040528093929190818152602001838380828437600081840152601f19601f8201169050808301925050505050505091929192908035906020019064010000000081111561034c57600080fd5b82018360208201111561035e57600080fd5b8035906020019184600183028401116401000000008311171561038057600080fd5b91908080601f016020809104026020016040519081016040528093929190818152602001838380828437600081840152601f19601f820116905080830192505050505050509192919290803561ffff16906020019092919050505061070a565b005b600181815481106103ef57fe5b9060005260206000209060030201600091509050806000018054600181600116156101000203166002900480601f01602080910402602001604051908101604052809291908181526020018280546001816001161561010002031660029004801561049b5780601f106104705761010080835404028352916020019161049b565b820191906000526020600020905b81548152906001019060200180831161047e57829003601f168201915b505050505090806001018054600181600116156101000203166002900480601f0160208091040260200160405190810160405280929190818152602001828054600181600116156101000203166002900480156105395780601f1061050e57610100808354040283529160200191610539565b820191906000526020600020905b81548152906001019060200180831161051c57829003601f168201915b5050505050908060020160009054906101000a900461ffff16905083565b60608060006001848154811061056957fe5b90600052602060002090600302016000016001858154811061058757fe5b9060005260206000209060030201600101600186815481106105a557fe5b906000526020600020906003020160020160009054906101000a900461ffff16828054600181600116156101000203166002900480601f01602080910402602001604051908101604052809291908181526020018280546001816001161561010002031660029004801561065a5780601f1061062f5761010080835404028352916020019161065a565b820191906000526020600020905b81548152906001019060200180831161063d57829003601f168201915b50505050509250818054600181600116156101000203166002900480601f0160208091040260200160405190810160405280929190818152602001828054600181600116156101000203166002900480156106f65780601f106106cb576101008083540402835291602001916106f6565b820191906000526020600020905b8154815290600101906020018083116106d957829003601f168201915b505050505091509250925092509193909250565b600160405180606001604052808581526020018481526020018361ffff16815250908060018154018082558091505060019003906000526020600020906003020160009091909190915060008201518160000190805190602001906107709291906107b8565b50602082015181600101908051906020019061078d9291906107b8565b5060408201518160020160006101000a81548161ffff021916908361ffff1602179055505050505050565b828054600181600116156101000203166002900490600052602060002090601f016020900481019282601f106107f957805160ff1916838001178555610827565b82800160010185558215610827579182015b8281111561082657825182559160200191906001019061080b565b5b5090506108349190610838565b5090565b5b80821115610851576000816000905550600101610839565b509056fea26469706673582212202db0b4c17e4728219a8e724bcdfefe5bb5064d0889dcaf89d21983b1b015df4964736f6c634300060c0033",
  "immutableReferences": {},
  "source": "pragma solidity ^0.6.0;\n\ncontract ReportInfo{\n    string reportHash;\n    struct Report {\n        string userAddress;\n        string reportHash;\n        uint16 downloads;\n    }\n    Report[] public Reports;\n\n    function set(string memory _userAddress,string memory _reportHash,uint16 _downloads) public {\n        \n        Reports.push(Report(_userAddress,_reportHash,_downloads));\n    }\n\n    function get(uint _index) public view returns (string memory,string memory,uint16) {\n        return (Reports[_index].userAddress, Reports[_index].reportHash, Reports[_index].downloads);\n    }\n}",
  "sourcePath": "/Users/nishinosatsushin/Desktop/ReportToken/contracts/ReportInfo.sol",
  "compiler": {
    "name": "solc",
    "version": "0.6.12+commit.27d51765.Emscripten.clang"
  },
  "schemaVersion": "3.2.2",
  "updatedAt": "2020-09-26T04:52:20.286Z",
  "networkType": "ethereum",
  "devdoc": {
    "kind": "dev",
    "methods": {},
    "version": 1
  },
  "userdoc": {
    "kind": "user",
    "methods": {},
    "version": 1
  }
}