{
  "contractName": "ReportInfo",
  "abi": [
    {
      "inputs": [
        {
          "internalType": "address",
          "name": "",
          "type": "address"
        }
      ],
      "name": "reportId",
      "outputs": [
        {
          "internalType": "uint16",
          "name": "",
          "type": "uint16"
        }
      ],
      "stateMutability": "view",
      "type": "function",
      "constant": true
    },
    {
      "inputs": [
        {
          "internalType": "address",
          "name": "",
          "type": "address"
        },
        {
          "internalType": "uint16",
          "name": "",
          "type": "uint16"
        }
      ],
      "name": "reports",
      "outputs": [
        {
          "internalType": "string",
          "name": "",
          "type": "string"
        }
      ],
      "stateMutability": "view",
      "type": "function",
      "constant": true
    },
    {
      "inputs": [
        {
          "internalType": "string",
          "name": "_reportHash",
          "type": "string"
        }
      ],
      "name": "setReport",
      "outputs": [
        {
          "internalType": "uint16",
          "name": "",
          "type": "uint16"
        }
      ],
      "stateMutability": "nonpayable",
      "type": "function"
    },
    {
      "inputs": [
        {
          "internalType": "uint16",
          "name": "_index",
          "type": "uint16"
        }
      ],
      "name": "getOwnerReport",
      "outputs": [
        {
          "internalType": "string",
          "name": "",
          "type": "string"
        }
      ],
      "stateMutability": "view",
      "type": "function",
      "constant": true
    },
    {
      "inputs": [
        {
          "internalType": "uint16",
          "name": "_index",
          "type": "uint16"
        },
        {
          "internalType": "address",
          "name": "_shareAddress",
          "type": "address"
        }
      ],
      "name": "getReport",
      "outputs": [
        {
          "internalType": "string",
          "name": "",
          "type": "string"
        }
      ],
      "stateMutability": "view",
      "type": "function",
      "constant": true
    }
  ],
  "bytecode": "0x608060405234801561001057600080fd5b506108f2806100206000396000f3fe608060405234801561001057600080fd5b50600436106100575760003560e01c80637fe39e3e1461005c57806389bf20601461012f578063b2052c17146101da578063cc0dfdd914610236578063efb2553214610301575b600080fd5b6101156004803603602081101561007257600080fd5b810190808035906020019064010000000081111561008f57600080fd5b8201836020820111156100a157600080fd5b803590602001918460018302840111640100000000831117156100c357600080fd5b91908080601f016020809104026020016040519081016040528093929190818152602001838380828437600081840152601f19601f8201169050808301925050505050505091929192905050506103cc565b604051808261ffff16815260200191505060405180910390f35b61015f6004803603602081101561014557600080fd5b81019080803561ffff16906020019092919050505061054c565b6040518080602001828103825283818151815260200191508051906020019080838360005b8381101561019f578082015181840152602081019050610184565b50505050905090810190601f1680156101cc5780820380516001836020036101000a031916815260200191505b509250505060405180910390f35b61021c600480360360208110156101f057600080fd5b81019080803573ffffffffffffffffffffffffffffffffffffffff169060200190929190505050610646565b604051808261ffff16815260200191505060405180910390f35b6102866004803603604081101561024c57600080fd5b81019080803573ffffffffffffffffffffffffffffffffffffffff169060200190929190803561ffff169060200190929190505050610667565b6040518080602001828103825283818151815260200191508051906020019080838360005b838110156102c65780820151818401526020810190506102ab565b50505050905090810190601f1680156102f35780820380516001836020036101000a031916815260200191505b509250505060405180910390f35b6103516004803603604081101561031757600080fd5b81019080803561ffff169060200190929190803573ffffffffffffffffffffffffffffffffffffffff169060200190929190505050610724565b6040518080602001828103825283818151815260200191508051906020019080838360005b83811015610391578082015181840152602081019050610376565b50505050905090810190601f1680156103be5780820380516001836020036101000a031916815260200191505b509250505060405180910390f35b60008060003373ffffffffffffffffffffffffffffffffffffffff1673ffffffffffffffffffffffffffffffffffffffff168152602001908152602001600020600081819054906101000a900461ffff168092919060010191906101000a81548161ffff021916908361ffff1602179055505081600160003373ffffffffffffffffffffffffffffffffffffffff1673ffffffffffffffffffffffffffffffffffffffff16815260200190815260200160002060008060003373ffffffffffffffffffffffffffffffffffffffff1673ffffffffffffffffffffffffffffffffffffffff16815260200190815260200160002060009054906101000a900461ffff1661ffff1661ffff16815260200190815260200160002090805190602001906104f792919061081f565b506000803373ffffffffffffffffffffffffffffffffffffffff1673ffffffffffffffffffffffffffffffffffffffff16815260200190815260200160002060009054906101000a900461ffff169050919050565b6060600160003373ffffffffffffffffffffffffffffffffffffffff1673ffffffffffffffffffffffffffffffffffffffff16815260200190815260200160002060008361ffff1661ffff1681526020019081526020016000208054600181600116156101000203166002900480601f01602080910402602001604051908101604052809291908181526020018280546001816001161561010002031660029004801561063a5780601f1061060f5761010080835404028352916020019161063a565b820191906000526020600020905b81548152906001019060200180831161061d57829003601f168201915b50505050509050919050565b60006020528060005260406000206000915054906101000a900461ffff1681565b6001602052816000526040600020602052806000526040600020600091509150508054600181600116156101000203166002900480601f01602080910402602001604051908101604052809291908181526020018280546001816001161561010002031660029004801561071c5780601f106106f15761010080835404028352916020019161071c565b820191906000526020600020905b8154815290600101906020018083116106ff57829003601f168201915b505050505081565b6060600160008373ffffffffffffffffffffffffffffffffffffffff1673ffffffffffffffffffffffffffffffffffffffff16815260200190815260200160002060008461ffff1661ffff1681526020019081526020016000208054600181600116156101000203166002900480601f0160208091040260200160405190810160405280929190818152602001828054600181600116156101000203166002900480156108125780601f106107e757610100808354040283529160200191610812565b820191906000526020600020905b8154815290600101906020018083116107f557829003601f168201915b5050505050905092915050565b828054600181600116156101000203166002900490600052602060002090601f016020900481019282601f1061086057805160ff191683800117855561088e565b8280016001018555821561088e579182015b8281111561088d578251825591602001919060010190610872565b5b50905061089b919061089f565b5090565b5b808211156108b85760008160009055506001016108a0565b509056fea264697066735822122081445290cb01148d9f1e713b5c39a7f1996ee85e782170bacaed5343235cded264736f6c634300060c0033",
  "immutableReferences": {},
  "source": "pragma solidity ^0.6.0;\n\ncontract ReportInfo{\n    //mapping\n    mapping(address => uint16) public reportId;\n    mapping(address => mapping(uint16 => string)) public reports;\n\n\n    //レポートを共有した時に呼び出される関数\n    //引数はレポートのハッシュ値\n    //set\n    function setReport(string memory _reportHash) public returns(uint16){\n        reportId[msg.sender]++;\n        reports[msg.sender][reportId[msg.sender]] = _reportHash;\n        return reportId[msg.sender];\n    }\n\n    //自分が共有したレポートを見る時の関数\n    //引数はレポートのID(インデックス)\n    //get owner report\n    function getOwnerReport(uint16 _index) public view returns (string memory) {\n        return reports[msg.sender][_index];\n    }\n\n    //購入したレポートを見る時の関数\n    //引数はレポートのID(インデックス)とそのレポートをシェアしたアカウントのアドレス\n    //get report\n    function getReport(uint16 _index,address _shareAddress) public view returns (string memory){\n        return reports[_shareAddress][_index];\n    }\n}",
  "sourcePath": "/Users/nishinosatsushin/Desktop/ReportToken/contracts/ReportInfo.sol",
  "compiler": {
    "name": "solc",
    "version": "0.6.12+commit.27d51765.Emscripten.clang"
  },
  "schemaVersion": "3.2.2",
  "updatedAt": "2020-09-28T09:52:46.240Z",
  "networkType": "ethereum",
  "devdoc": {
    "kind": "dev",
    "methods": {},
    "version": 1
  },
  "userdoc": {
    "kind": "user",
    "methods": {},
    "version": 1
  }
}