{
  "contractName": "ReportInfo",
  "abi": [
    {
      "inputs": [
        {
          "internalType": "uint256",
          "name": "",
          "type": "uint256"
        }
      ],
      "name": "Reports",
      "outputs": [
        {
          "internalType": "string",
          "name": "_reportHash",
          "type": "string"
        }
      ],
      "stateMutability": "view",
      "type": "function",
      "constant": true
    },
    {
      "inputs": [
        {
          "internalType": "string",
          "name": "_reportHash",
          "type": "string"
        }
      ],
      "name": "set",
      "outputs": [],
      "stateMutability": "nonpayable",
      "type": "function"
    },
    {
      "inputs": [],
      "name": "get",
      "outputs": [
        {
          "internalType": "string",
          "name": "",
          "type": "string"
        }
      ],
      "stateMutability": "view",
      "type": "function",
      "constant": true
    }
  ],
  "bytecode": "0x608060405234801561001057600080fd5b50610568806100206000396000f3fe608060405234801561001057600080fd5b50600436106100415760003560e01c8063467f2cd8146100465780634ed3885e146100ed5780636d4ce63c146101a8575b600080fd5b6100726004803603602081101561005c57600080fd5b810190808035906020019092919050505061022b565b6040518080602001828103825283818151815260200191508051906020019080838360005b838110156100b2578082015181840152602081019050610097565b50505050905090810190601f1680156100df5780820380516001836020036101000a031916815260200191505b509250505060405180910390f35b6101a66004803603602081101561010357600080fd5b810190808035906020019064010000000081111561012057600080fd5b82018360208201111561013257600080fd5b8035906020019184600183028401116401000000008311171561015457600080fd5b91908080601f016020809104026020016040519081016040528093929190818152602001838380828437600081840152601f19601f8201169050808301925050505050505091929192905050506102ea565b005b6101b06103f3565b6040518080602001828103825283818151815260200191508051906020019080838360005b838110156101f05780820151818401526020810190506101d5565b50505050905090810190601f16801561021d5780820380516001836020036101000a031916815260200191505b509250505060405180910390f35b6001818154811061023857fe5b90600052602060002001600091509050806000018054600181600116156101000203166002900480601f0160208091040260200160405190810160405280929190818152602001828054600181600116156101000203166002900480156102e05780601f106102b5576101008083540402835291602001916102e0565b820191906000526020600020905b8154815290600101906020018083116102c357829003601f168201915b5050505050905081565b8060009080519060200190610300929190610495565b506001604051806020016040528060008054600181600116156101000203166002900480601f0160208091040260200160405190810160405280929190818152602001828054600181600116156101000203166002900480156103a45780601f10610379576101008083540402835291602001916103a4565b820191906000526020600020905b81548152906001019060200180831161038757829003601f168201915b50505050508152509080600181540180825580915050600190039060005260206000200160009091909190915060008201518160000190805190602001906103ed929190610495565b50505050565b606060008054600181600116156101000203166002900480601f01602080910402602001604051908101604052809291908181526020018280546001816001161561010002031660029004801561048b5780601f106104605761010080835404028352916020019161048b565b820191906000526020600020905b81548152906001019060200180831161046e57829003601f168201915b5050505050905090565b828054600181600116156101000203166002900490600052602060002090601f016020900481019282601f106104d657805160ff1916838001178555610504565b82800160010185558215610504579182015b828111156105035782518255916020019190600101906104e8565b5b5090506105119190610515565b5090565b5b8082111561052e576000816000905550600101610516565b509056fea2646970667358221220587c0a8a030d049d434f75a4d204e05a108d551f4ff71f0708d2e7a8ae1671fc64736f6c634300060c0033",
  "immutableReferences": {},
  "source": "pragma solidity ^0.6.0;\n\ncontract ReportInfo{\n    string reportHash;\n    // constructor(){\n        struct Report {\n            string _reportHash;\n        }\n    // }\n    Report[] public Reports;\n\n    function set(string memory _reportHash) public {\n\n        reportHash = _reportHash;\n        Reports.push(Report(reportHash));\n    }\n\n    function get() public view returns (string memory) {\n        return reportHash;\n    }\n}",
  "sourcePath": "/Users/nishinosatsushin/Desktop/ReportToken/contracts/ReportInfo.sol",
  "compiler": {
    "name": "solc",
    "version": "0.6.12+commit.27d51765.Emscripten.clang"
  },
  "schemaVersion": "3.2.2",
  "updatedAt": "2020-09-20T10:00:00.495Z",
  "networkType": "ethereum",
  "devdoc": {
    "kind": "dev",
    "methods": {},
    "version": 1
  },
  "userdoc": {
    "kind": "user",
    "methods": {},
    "version": 1
  }
}